{
  "transactions": [
    {
      "hash": "0x36774f02dc163b170dc9ef86643f10902ecd3fbe69e4514c0dd62544aa44fc23",
      "transactionType": "CALL",
      "contractName": null,
      "contractAddress": "0xd7e3bd71a1fab8108f71ed41d7751da4732fe659",
      "function": "mintNft(string)",
      "arguments": [
        "ipfs.io/ipfs/QmUPjADFGEKmfohdTaNcWhp7VGk26h5jXDA7v3VtTnTLcW?filename=st-bernard.png"
      ],
      "transaction": {
        "from": "0xff17616e555e54821bf79435eeefe1d172b4b08c",
        "to": "0xd7e3bd71a1fab8108f71ed41d7751da4732fe659",
        "gas": "0x3de16",
        "value": "0x0",
        "input": "0xda86f4a900000000000000000000000000000000000000000000000000000000000000200000000000000000000000000000000000000000000000000000000000000053697066732e696f2f697066732f516d55506a41444647454b6d666f686454614e635768703756476b323668356a5844413776335674546e544c63573f66696c656e616d653d73742d6265726e6172642e706e6700000000000000000000000000",
        "nonce": "0x1d",
        "chainId": "0xaa36a7"
      },
      "additionalContracts": [],
      "isFixedGasLimit": false
    }
  ],
  "receipts": [
    {
      "status": "0x1",
      "cumulativeGasUsed": "0x94f75d",
      "logs": [
        {
          "address": "0xd7e3bd71a1fab8108f71ed41d7751da4732fe659",
          "topics": [
            "0xddf252ad1be2c89b69c2b068fc378daa952ba7f163c4a11628f55a4df523b3ef",
            "0x0000000000000000000000000000000000000000000000000000000000000000",
            "0x000000000000000000000000ff17616e555e54821bf79435eeefe1d172b4b08c",
            "0x0000000000000000000000000000000000000000000000000000000000000000"
          ],
          "data": "0x",
          "blockHash": "0x663f268bfc51cc629abfbee6914765c6fb18a110463b13cacea8f932fcdc63ec",
          "blockNumber": "0x65f7be",
          "transactionHash": "0x36774f02dc163b170dc9ef86643f10902ecd3fbe69e4514c0dd62544aa44fc23",
          "transactionIndex": "0x85",
          "logIndex": "0x97",
          "removed": false
        },
        {
          "address": "0xd7e3bd71a1fab8108f71ed41d7751da4732fe659",
          "topics": [
            "0xf2b290a76feb54be358b555507421d765609171aefa0646f109a653228ff81b8",
            "0x000000000000000000000000ff17616e555e54821bf79435eeefe1d172b4b08c"
          ],
          "data": "0x0000000000000000000000000000000000000000000000000000000000000000",
          "blockHash": "0x663f268bfc51cc629abfbee6914765c6fb18a110463b13cacea8f932fcdc63ec",
          "blockNumber": "0x65f7be",
          "transactionHash": "0x36774f02dc163b170dc9ef86643f10902ecd3fbe69e4514c0dd62544aa44fc23",
          "transactionIndex": "0x85",
          "logIndex": "0x98",
          "removed": false
        }
      ],
      "logsBloom": "0x00000000000000000000000200000002000000000000000000000000000000000000000000000000000000000000000000000000000000000000000000000000000000000000000000000008000000000000000000000000000000000000000000000000020000000000000000040800100000000020000000000010000000000000000000000000000000000000000000000000000000000000100000000000000000000000000000000000000000000000000000000000000000000000000000000012000000000000000000000000000000000000000000000000000020000000000000000088000000000000000000000000000000000000000000000000",
      "type": "0x2",
      "transactionHash": "0x36774f02dc163b170dc9ef86643f10902ecd3fbe69e4514c0dd62544aa44fc23",
      "transactionIndex": "0x85",
      "blockHash": "0x663f268bfc51cc629abfbee6914765c6fb18a110463b13cacea8f932fcdc63ec",
      "blockNumber": "0x65f7be",
      "gasUsed": "0x2cccf",
      "effectiveGasPrice": "0x6f05fb28",
      "from": "0xff17616e555e54821bf79435eeefe1d172b4b08c",
      "to": "0xd7e3bd71a1fab8108f71ed41d7751da4732fe659",
      "contractAddress": null
    }
  ],
  "libraries": [],
  "pending": [],
  "returns": {},
  "timestamp": 1726212353,
  "chain": 11155111,
  "commit": "2827d1b"
}