{
  "transactions": [
    {
      "hash": "0x2c4f6abbb1e8fc278c9a11e88c372ad77a8c96ca4e4bc5f490208f94b6839780",
      "transactionType": "CALL",
      "contractName": null,
      "contractAddress": "0xd7e3bd71a1fab8108f71ed41d7751da4732fe659",
      "function": "mintNft(string)",
      "arguments": [
        "ipfs://QmUPjADFGEKmfohdTaNcWhp7VGk26h5jXDA7v3VtTnTLcW"
      ],
      "transaction": {
        "from": "0xff17616e555e54821bf79435eeefe1d172b4b08c",
        "to": "0xd7e3bd71a1fab8108f71ed41d7751da4732fe659",
        "gas": "0x2ab33",
        "value": "0x0",
        "input": "0xda86f4a900000000000000000000000000000000000000000000000000000000000000200000000000000000000000000000000000000000000000000000000000000035697066733a2f2f516d55506a41444647454b6d666f686454614e635768703756476b323668356a5844413776335674546e544c63570000000000000000000000",
        "nonce": "0x1f",
        "chainId": "0xaa36a7"
      },
      "additionalContracts": [],
      "isFixedGasLimit": false
    }
  ],
  "receipts": [
    {
      "status": "0x1",
      "cumulativeGasUsed": "0x1675bf6",
      "logs": [
        {
          "address": "0xd7e3bd71a1fab8108f71ed41d7751da4732fe659",
          "topics": [
            "0xddf252ad1be2c89b69c2b068fc378daa952ba7f163c4a11628f55a4df523b3ef",
            "0x0000000000000000000000000000000000000000000000000000000000000000",
            "0x000000000000000000000000ff17616e555e54821bf79435eeefe1d172b4b08c",
            "0x0000000000000000000000000000000000000000000000000000000000000002"
          ],
          "data": "0x",
          "blockHash": "0x83c9fede2734bea7edadd35080a483564421dc4301dd754b033d5289f73a5509",
          "blockNumber": "0x65f7e0",
          "transactionHash": "0x2c4f6abbb1e8fc278c9a11e88c372ad77a8c96ca4e4bc5f490208f94b6839780",
          "transactionIndex": "0xd7",
          "logIndex": "0xf2",
          "removed": false
        },
        {
          "address": "0xd7e3bd71a1fab8108f71ed41d7751da4732fe659",
          "topics": [
            "0xf2b290a76feb54be358b555507421d765609171aefa0646f109a653228ff81b8",
            "0x000000000000000000000000ff17616e555e54821bf79435eeefe1d172b4b08c"
          ],
          "data": "0x0000000000000000000000000000000000000000000000000000000000000002",
          "blockHash": "0x83c9fede2734bea7edadd35080a483564421dc4301dd754b033d5289f73a5509",
          "blockNumber": "0x65f7e0",
          "transactionHash": "0x2c4f6abbb1e8fc278c9a11e88c372ad77a8c96ca4e4bc5f490208f94b6839780",
          "transactionIndex": "0xd7",
          "logIndex": "0xf3",
          "removed": false
        }
      ],
      "logsBloom": "0x04000000000000000000000200000002000000000000000000000000000000000000000000000000000000000000000000000000000000000000000000000000000000000000000000000008000000000000000000000000000000000000000000000000020000000000000000040800100000000020000000000010000000000000000000000000000000000000000000000000000000000000100000000000000000000000000000000100000000000000000000000000000000000000000000000012000000000000000000000000000000000000000000000000000020000000000000000088000000000000000000000000008000000000000000000000",
      "type": "0x2",
      "transactionHash": "0x2c4f6abbb1e8fc278c9a11e88c372ad77a8c96ca4e4bc5f490208f94b6839780",
      "transactionIndex": "0xd7",
      "blockHash": "0x83c9fede2734bea7edadd35080a483564421dc4301dd754b033d5289f73a5509",
      "blockNumber": "0x65f7e0",
      "gasUsed": "0x1eea0",
      "effectiveGasPrice": "0x3de3fd24",
      "from": "0xff17616e555e54821bf79435eeefe1d172b4b08c",
      "to": "0xd7e3bd71a1fab8108f71ed41d7751da4732fe659",
      "contractAddress": null
    }
  ],
  "libraries": [],
  "pending": [],
  "returns": {},
  "timestamp": 1726212817,
  "chain": 11155111,
  "commit": "2827d1b"
}