{
  "transactions": [
    {
      "hash": "0xf1a0dfa917ea7f5c5fcfdba126d5d304e4143e11d6092259159aff133fa08f65",
      "transactionType": "CALL",
      "contractName": null,
      "contractAddress": "0xd7e3bd71a1fab8108f71ed41d7751da4732fe659",
      "function": "mintNft(string)",
      "arguments": [
        "https://gateway.pinata.cloud/ipfs/QmUPjADFGEKmfohdTaNcWhp7VGk26h5jXDA7v3VtTnTLcW"
      ],
      "transaction": {
        "from": "0xff17616e555e54821bf79435eeefe1d172b4b08c",
        "to": "0xd7e3bd71a1fab8108f71ed41d7751da4732fe659",
        "gas": "0x354be",
        "value": "0x0",
        "input": "0xda86f4a90000000000000000000000000000000000000000000000000000000000000020000000000000000000000000000000000000000000000000000000000000005068747470733a2f2f676174657761792e70696e6174612e636c6f75642f697066732f516d55506a41444647454b6d666f686454614e635768703756476b323668356a5844413776335674546e544c635700000000000000000000000000000000",
        "nonce": "0x20",
        "chainId": "0xaa36a7"
      },
      "additionalContracts": [],
      "isFixedGasLimit": false
    }
  ],
  "receipts": [
    {
      "status": "0x1",
      "cumulativeGasUsed": "0xc1a895",
      "logs": [
        {
          "address": "0xd7e3bd71a1fab8108f71ed41d7751da4732fe659",
          "topics": [
            "0xddf252ad1be2c89b69c2b068fc378daa952ba7f163c4a11628f55a4df523b3ef",
            "0x0000000000000000000000000000000000000000000000000000000000000000",
            "0x000000000000000000000000ff17616e555e54821bf79435eeefe1d172b4b08c",
            "0x0000000000000000000000000000000000000000000000000000000000000003"
          ],
          "data": "0x",
          "blockHash": "0x6dbd89862f099f39052e16f693080061c01e6f2a8d9c870cf8836defd0175728",
          "blockNumber": "0x65f819",
          "transactionHash": "0xf1a0dfa917ea7f5c5fcfdba126d5d304e4143e11d6092259159aff133fa08f65",
          "transactionIndex": "0x6d",
          "logIndex": "0x76",
          "removed": false
        },
        {
          "address": "0xd7e3bd71a1fab8108f71ed41d7751da4732fe659",
          "topics": [
            "0xf2b290a76feb54be358b555507421d765609171aefa0646f109a653228ff81b8",
            "0x000000000000000000000000ff17616e555e54821bf79435eeefe1d172b4b08c"
          ],
          "data": "0x0000000000000000000000000000000000000000000000000000000000000003",
          "blockHash": "0x6dbd89862f099f39052e16f693080061c01e6f2a8d9c870cf8836defd0175728",
          "blockNumber": "0x65f819",
          "transactionHash": "0xf1a0dfa917ea7f5c5fcfdba126d5d304e4143e11d6092259159aff133fa08f65",
          "transactionIndex": "0x6d",
          "logIndex": "0x77",
          "removed": false
        }
      ],
      "logsBloom": "0x00000000000000000000000200000002000000000000000000000000000000000000000000000000000000000000000000000000020000000000000000000000000000000000000000000008000000000000000000000000000000000000000000000000020000000000000000040800100000000020000000000010000000000000000000000000000000000000000000000000000000000000100000000000000000000000000000000000000000000000000000800000000000000000400000000012000000000000000000000000000000000000000000000000000020000000000000000088000000000000000000000000000000000000000000000000",
      "type": "0x2",
      "transactionHash": "0xf1a0dfa917ea7f5c5fcfdba126d5d304e4143e11d6092259159aff133fa08f65",
      "transactionIndex": "0x6d",
      "blockHash": "0x6dbd89862f099f39052e16f693080061c01e6f2a8d9c870cf8836defd0175728",
      "blockNumber": "0x65f819",
      "gasUsed": "0x24713",
      "effectiveGasPrice": "0x3d5a6197",
      "from": "0xff17616e555e54821bf79435eeefe1d172b4b08c",
      "to": "0xd7e3bd71a1fab8108f71ed41d7751da4732fe659",
      "contractAddress": null
    }
  ],
  "libraries": [],
  "pending": [],
  "returns": {},
  "timestamp": 1726213579,
  "chain": 11155111,
  "commit": "2827d1b"
}